:100000000C94DE000C946B050C946B050C946B0542
:100010000C946B050C946B050C946B050C946B05A0
:100020000C946B050C946B050C946B050C946B0590
:100030000C946B050C946B050C946B050C946B0580
:100040000C946B050C946B050C946B050C946B0570
:100050000C946B05C101DA01F3010C0224022402A5
:100060002402240224022402240224022402240260
:100070002402240224022402240224022402240250
:100080002402240224022402240224022402240240
:1000900024022402C101DA01F3010C0231024A02F6
:1000A00063027C02940294029402940294029402E9
:1000B0009402940294029402940294029402940290
:1000C0009402940294029402940294029402940280
:1000D00094029402940294029402940231024A021D
:1000E00063027C02A402B902CE02E302F702F70225
:1000F000F702F702F702F702F702F702F702F70238
:10010000F702F702F702F702F702F702F702F70227
:10011000F702F702F702F702F702F702F702F70217
:10012000F702F702A402B902CE02E3023305350555
:10013000370539053A053A053A053A053A053A05CB
:100140003A053A053A053A053A053A053A053A05B7
:100150003A053A053A053A053A053A053A053A05A7
:100160003A053A053A053A053A053A0533053505A3
:1001700037053905460548054A054C054D054D0529
:100180004D054D054D054D054D054D054D054D05DF
:100190004D054D054D054D054D054D054D054D05CF
:1001A0004D054D054D054D054D054D054D054D05BF
:1001B0004D054D05460548054A054C0511241FBE51
:1001C000CFE5D4E0DEBFCDBFECEBF1E041E017C0FE
:1001D000B591A59135912591059107FD0CC095919B
:1001E0008591EF01F92FE82F05900D92A217B30723
:1001F000D9F7FE0104C01D92A217B307E1F7EC3B4B
:10020000F40731F70E9410010C940601F894FFCF17
:0F02100054454D50203A200048554D203A2000CB
:1002200001E022E640E062E681E60E94FB02CC2487
:10023000C3940F2EF2E6EF2EF02D00E022E641E609
:1002400060E172E080E00E94A90322E641E661E0FD
:1002500082E00E948C0422E641E668E172E080E0E0
:100260000E94A9032FE78AE196E021508040904048
:10027000E1F700C0000062E082E60E94F70462E05D
:1002800082E60E94DB0462E082E60E94FC03D82F33
:1002900062E082E60E94FC03C82F62E082E60E94D0
:1002A000FC03F82E62E082E60E94FC03182F62E055
:1002B00082E60E94FC0362E082E60E944E05CC24A6
:1002C000C3940F2EF2E6EF2EF02D00E022E641E679
:1002D00068E081E00E948C046F2D70E080E090E087
:1002E00022E641E60E945303EE24E39402E620E076
:1002F00042E661E68CE20E942C04612F70E080E00F
:1003000090E00F2EF2E6EF2EF02D00E022E641E61F
:100310000E94530322E641E667E082E00E948C04DB
:100320006D2F70E080E090E022E641E60E945303EA
:10033000EE24E39402E620E042E661E68CE20E94CD
:100340002C046C2F70E080E090E00F2EF2E6EF2E90
:10035000F02D00E022E641E60E94530387EA91E691
:0A0360000197F1F700C0000086CFFE
:10036A0090E0FC01E154F109E432F10508F067C0BC
:10037A00E65DFF4F0C946505413059F42AB381E0DC
:10038A0090E002C0880F991F6A95E2F7822B8ABB18
:10039A0008952AB381E090E002C0880F991F6A95F8
:1003AA00E2F7809582238ABB0895413059F427B336
:1003BA0081E090E002C0880F991F6A95E2F7822BCC
:1003CA0087BB089527B381E090E002C0880F991F88
:1003DA006A95E2F78095822387BB0895413059F4E4
:1003EA0024B381E090E002C0880F991F6A95E2F772
:1003FA00822B84BB089524B381E090E002C0880F69
:10040A00991F6A95E2F78095822384BB089541304B
:10041A0059F421B381E090E002C0880F991F6A95D0
:10042A00E2F7822B81BB089521B381E090E002C0FC
:10043A00880F991F6A95E2F78095822381BB0895F8
:10044A0090E0FC01E154F109E432F10508F067C0DB
:10045A00E25BFF4F0C946505413059F42BB381E000
:10046A0090E002C0880F991F6A95E2F7822B8BBB36
:10047A0008952BB381E090E002C0880F991F6A9516
:10048A00E2F7809582238BBB0895413059F428B353
:10049A0081E090E002C0880F991F6A95E2F7822BEB
:1004AA0088BB089528B381E090E002C0880F991FA5
:1004BA006A95E2F78095822388BB0895413059F402
:1004CA0025B381E090E002C0880F991F6A95E2F790
:1004DA00822B85BB089525B381E090E002C0880F86
:1004EA00991F6A95E2F78095822385BB089541306A
:1004FA0059F422B381E090E002C0880F991F6A95EF
:10050A00E2F7822B82BB089522B381E090E002C019
:10051A00880F991F6A95E2F78095822382BB089516
:10052A000F931F93082F10E0F801E154F109E43208
:10053A00F10508F057C0EE58FF4F0C94650549B312
:10054A0081E090E09C01062E02C0220F331F0A941C
:10055A00E2F7842F90E08223932302C09595879532
:10056A006A95E2F7982F3EC046B381E090E09C017D
:10057A00062E02C0220F331F0A94E2F7842F90E05E
:10058A008223932302C0959587956A95E2F7982F5F
:10059A0029C043B381E090E09C01062E02C0220FDD
:1005AA00331F0A94E2F7842F90E08223932302C038
:1005BA00959587956A95E2F7982F14C040B381E024
:1005CA0090E09C01062E02C0220F331F0A94E2F724
:1005DA00842F90E08223932302C0959587956A958C
:0C05EA00E2F7982F892F1F910F910895C0
:1005F600DF92EF92FF920F931F93CF93DF93C82F53
:10060600D62F142FF22E6FEF0E94280541E0602F9F
:100616008F2D0E94B50141E0612F8D2F0E94B501FB
:100626008FE493EC0197F1F700C00000E02E0F2D48
:10063600212F4D2F6C2F88E30E945C0489EF90E0F8
:100646000197F1F700C00000212F4D2F6C2F8EE08F
:100656000E945C0489EF90E00197F1F700C000006A
:10066600212F4D2F6C2F81E00E945C0483EC99E0D2
:100676000197F1F700C00000212F4D2F6C2F86E067
:100686000E945C0489EF90E00197F1F700C000003A
:10069600DF91CF911F910F91FF90EF90DF9008951A
:1006A600AF92BF92CF92DF92EF92FF920F931F937A
:1006B600CF93DF93CDB7DEB72F970FB6F894DEBF93
:1006C6000FBECDBFA42EB22ED02EFE2C10E02AE0F7
:1006D60030E040E050E00E941105E1E0F0E0EC0F70
:1006E600FD1FE10FF11D17FDFA956083622F732F31
:1006F600842F952F6115710581059105A1F01F5F66
:10070600E6CFE1E0F0E0EC0FFD1FE10FF11D17FD74
:10071600FA958081EC2C0F2D2D2D4B2D6A2D805DA9
:100726000E942C041150112364F72F960FB6F894EB
:10073600DEBF0FBECDBFDF91CF911F910F91FF900E
:0C074600EF90DF90CF90BF90AF9008952F
:100752006F927F928F92AF92BF92CF92DF92EF927F
:10076200FF920F931F93CF93DF933B01882EA42E0A
:10077200B22ED02EFE2C1C2DC0E0D0E022C0C03103
:10078200D10549F4C12EEF2C0D2D2B2D4A2D61E000
:1007920082E00E948C04E12E0F2D2D2D4B2D6A2D0F
:1007A200F301849187FC80810E942C048FE493ECF6
:1007B2000197F1F700C000009FEF691A790A890AD0
:1007C2002196F301849187FC80818111D8CF89EF32
:1007D20090E00197F1F700C00000DF91CF911F91E7
:1007E2000F91FF90EF90DF90CF90BF90AF908F90DE
:0607F2007F906F90089556
:1007F8000F931F93CF93DF93D82FC62F00E010E0FD
:100808001FC06C2F8D2F0E9495028823D1F389E198
:100818008A95F1F700C06C2F8D2F0E9495028130C8
:1008280039F4812F90E0880F991F182F116001C0AB
:10083800110F6C2F8D2F0E9495028130D1F30F5F1D
:100848000830F8F2812FDF91CF911F910F91089511
:10085800EF92FF920F931F93CF93DF93F82E162FEB
:10086800C42FD22F802F6E2D41E00E9425026F2DBC
:10087800812F0E943B0541E06D2F8C2F0E9425029D
:1008880089EF90E00197F1F700C0000040E06D2F7C
:100898008C2F0E94250289EF90E00197F1F700C0A4
:1008A8000000DF91CF911F910F91FF90EF90089575
:1008B800EF92FF920F931F93CF93DF93F82E162F8B
:1008C800C42FD22F802F6E2D40E00E9425026F2D5D
:1008D800812F0E943B0541E06D2F8C2F0E9425023D
:1008E80089EF90E00197F1F700C0000040E06D2F1C
:1008F8008C2F0E94250287EB9BE00197F1F700C03F
:100908000000DF91CF911F910F91FF90EF90089514
:10091800CF92EF920F93942F422F202F0E2DEC2C75
:100928003FEF380F323070F4613170F4662371F0A4
:10093800813019F45FE7560F0AC0823041F45FEB4B
:10094800560F05C050E803C050E801C050E8692FB1
:10095800852F0E945C0489EF90E00197F1F700C0B1
:0A09680000000F91EF90CF9008956A
:10097200A1E21A2EAA1BBB1BFD010DC0AA1FBB1FA1
:10098200EE1FFF1FA217B307E407F50720F0A21B13
:10099200B30BE40BF50B661F771F881F991F1A9480
:1009A20069F760957095809590959B01AC01BD01AA
:0409B200CF010895D4
:1009B600CF93DF93C82FD62F40E00E94B5016D2F4D
:1009C6008C2F0E9495028130D1F36D2F8C2F0E94BF
:1009D60095028823D1F36D2F8C2F0E9495028130CA
:0809E600D1F3DF91CF910895D8
:1009EE00CF93DF93C82FD62F41E00E94B50140E090
:1009FE006D2F8C2F0E94250287E893E10197F1F766
:100A0E0000C0000041E06D2F8C2F0E942502DF9167
:040A1E00CF910895D7
:100A2200052E97FB1EF400940E945D0557FD07D02A
:100A32000E94B90407FC03D04EF40C945D05509556
:0E0A42004095309521953F4F4F4F5F4F0895DF
:100A500090E0FC01E154F109E432F10558F4EA5662
:100A6000FF4F0C9465056ABB089567BB089564BB8E
:060A7000089561BB08952A
:100A760090E0FC01E154F109E432F10558F4E65442
:100A8600FF4F0C9465056BBB089568BB089565BB65
:060A9600089562BB089503
:100A9C00CF93DF93C82FD62F41E00E94B50140E0E1
:0E0AAC006D2F8C2F0E942502DF91CF910895AF
:100ABA0090958095709561957F4F8F4F9F4F0895C0
:0C0ACA00EE0FFF1F0590F491E02D099441
:040AD6000C9400007C
:00000001FF
