:100000000C94BA000C94D1020C94D1020C94D1023D
:100010000C94D1020C94D1020C94D1020C94D10214
:100020000C94D1020C94D1020C94D1020C94D10204
:100030000C94D1020C94D1020C94D1020C94D102F4
:100040000C94D1020C94D1020C94D1020C94D102E4
:100050000C94D102F000090122013B01530153012C
:1000600053015301530153015301530153015301F0
:1000700053015301530153015301530153015301E0
:1000800053015301530153015301530153015301D0
:1000900053015301F000090122013B016001790184
:1000A0009201AB01C301C301C301C301C301C30179
:1000B000C301C301C301C301C301C301C301C30120
:1000C000C301C301C301C301C301C301C301C30110
:1000D000C301C301C301C301C301C30160017901AD
:1000E0009201AB01B002B202B402B602B702B7028B
:1000F000B702B702B702B702B702B702B702B70238
:10010000B702B702B702B702B702B702B702B70227
:10011000B702B702B702B702B702B702B702B70217
:10012000B702B702B002B202B402B602C302C502FD
:10013000C702C902CA02CA02CA02CA02CA02CA0263
:10014000CA02CA02CA02CA02CA02CA02CA02CA024F
:10015000CA02CA02CA02CA02CA02CA02CA02CA023F
:10016000CA02CA02CA02CA02CA02CA02C302C5023B
:10017000C702C90211241FBECFE5D4E0DEBFCDBF48
:10018000E4E7F1E041E017C0B591A59135912591E3
:10019000059107FD0CC095918591EF01F92FE82F8E
:1001A00005900D92A217B307D9F7FE0104C01D9266
:1001B000A217B307E1F7E437F40731F70E947C0296
:0801C0000C94E200F894FFCF5B
:1001C80090E0FC01E154F109E432F10508F067C060
:1001D800E65DFF4F0C94CB02413059F42AB381E01D
:1001E80090E002C0880F991F6A95E2F7822B8ABBBC
:1001F80008952AB381E090E002C0880F991F6A959C
:10020800E2F7809582238ABB0895413059F427B3D9
:1002180081E090E002C0880F991F6A95E2F7822B6F
:1002280087BB089527B381E090E002C0880F991F2B
:100238006A95E2F78095822387BB0895413059F487
:1002480024B381E090E002C0880F991F6A95E2F715
:10025800822B84BB089524B381E090E002C0880F0C
:10026800991F6A95E2F78095822384BB08954130EF
:1002780059F421B381E090E002C0880F991F6A9574
:10028800E2F7822B81BB089521B381E090E002C0A0
:10029800880F991F6A95E2F78095822381BB08959C
:1002A80090E0FC01E154F109E432F10508F067C07F
:1002B800E25BFF4F0C94CB02413059F42BB381E041
:1002C80090E002C0880F991F6A95E2F7822B8BBBDA
:1002D80008952BB381E090E002C0880F991F6A95BA
:1002E800E2F7809582238BBB0895413059F428B3F7
:1002F80081E090E002C0880F991F6A95E2F7822B8F
:1003080088BB089528B381E090E002C0880F991F48
:100318006A95E2F78095822388BB0895413059F4A5
:1003280025B381E090E002C0880F991F6A95E2F733
:10033800822B85BB089525B381E090E002C0880F29
:10034800991F6A95E2F78095822385BB089541300D
:1003580059F422B381E090E002C0880F991F6A9592
:10036800E2F7822B82BB089522B381E090E002C0BD
:10037800880F991F6A95E2F78095822382BB0895BA
:10038800DF92EF92FF920F931F93CF93DF93C82FC3
:10039800D62F142FF22E6FEF0E94A50241E0602F96
:1003A8008F2D0E94E40041E0612F8D2F0E94E40010
:1003B8008FE493EC0197F1F700C00000E02E0F2DB9
:1003C800212F4D2F6C2F88E30E944C0289EF90E07B
:1003D8000197F1F700C00000212F4D2F6C2F8EE000
:1003E8000E944C0289EF90E00197F1F700C00000ED
:1003F800212F4D2F6C2F81E00E944C0283EC99E055
:100408000197F1F700C00000212F4D2F6C2F86E0D7
:100418000E944C0289EF90E00197F1F700C00000BC
:10042800DF91CF911F910F91FF90EF90DF9008958A
:10043800EF92FF920F931F93CF93DF93F82E162F0F
:10044800C42FD22F802F6E2D41E00E9454016F2DB2
:10045800812F0E94B80241E06D2F8C2F0E94540119
:1004680089EF90E00197F1F700C0000040E06D2FA0
:100478008C2F0E94540189EF90E00197F1F700C09A
:100488000000DF91CF911F910F91FF90EF90089599
:10049800EF92FF920F931F93CF93DF93F82E162FAF
:1004A800C42FD22F802F6E2D40E00E9454016F2D53
:1004B800812F0E94B80241E06D2F8C2F0E945401B9
:1004C80089EF90E00197F1F700C0000040E06D2F40
:1004D8008C2F0E94540187EB9BE00197F1F700C035
:1004E8000000DF91CF911F910F91FF90EF90089539
:1004F80001E022E640E062E681E60E94C4018EEF58
:100508000E94D3020E949102EE24E39402E620E0C6
:0A05180042E661E60E941C02F5CFE6
:1005220084EC86BF06B607FEFDCF81B1887F803698
:10053200E1F784EC86BF06B607FEFDCF81B1887F66
:080542008038E1F783B1089550
:10054A0090E0FC01E154F109E432F10558F4EE5867
:10055A00FF4F0C94CB026ABB089567BB089564BB36
:06056A00089561BB089535
:1005700090E0FC01E154F109E432F10558F4EA5647
:10058000FF4F0C94CB026BBB089568BB089565BB0D
:06059000089562BB08950E
:0C059600EE0FFF1F0590F491E02D09947A
:0405A2000C940000B5
:0405A60082B9089579
:00000001FF
