:100000000C9472000C94D7010C94D7010C94D70176
:100010000C94D7010C94D7010C94D7010C94D70100
:100020000C94D7010C94D7010C94D7010C94D701F0
:100030000C94D7010C94D7010C94D7010C94D701E0
:100040000C94D7010C94D7010C94D7010C94D701D0
:100050000C94D701A800C100DA00F3000B010B01DA
:100060000B010B010B010B010B010B010B010B0130
:100070000B010B010B010B010B010B010B010B0120
:100080000B010B010B010B010B010B010B010B0110
:100090000B010B01A800C100DA00F30018013101C7
:1000A0004A0163017B017B017B017B017B017B01B9
:1000B0007B017B017B017B017B017B017B017B0160
:1000C0007B017B017B017B017B017B017B017B0150
:1000D0007B017B017B017B017B017B0118013101ED
:1000E0004A01630111241FBECFE5D4E0DEBFCDBFBE
:1000F000E4EEF0E040E017C0B591A591359125916F
:10010000059107FD0CC095918591EF01F92FE82F1E
:1001100005900D92A217B307D9F7FE0104C01D92F6
:10012000A217B307E1F7E43EF40731F70E94A901F3
:080130000C949A00F894FFCF33
:1001380090E0FC01E154F109E432F10508F067C0F0
:10014800E65DFF4F0C94D101413059F42AB381E0A8
:1001580090E002C0880F991F6A95E2F7822B8ABB4C
:1001680008952AB381E090E002C0880F991F6A952C
:10017800E2F7809582238ABB0895413059F427B36A
:1001880081E090E002C0880F991F6A95E2F7822B00
:1001980087BB089527B381E090E002C0880F991FBC
:1001A8006A95E2F78095822387BB0895413059F418
:1001B80024B381E090E002C0880F991F6A95E2F7A6
:1001C800822B84BB089524B381E090E002C0880F9D
:1001D800991F6A95E2F78095822384BB0895413080
:1001E80059F421B381E090E002C0880F991F6A9505
:1001F800E2F7822B81BB089521B381E090E002C031
:10020800880F991F6A95E2F78095822381BB08952C
:1002180090E0FC01E154F109E432F10508F067C00F
:10022800E25BFF4F0C94D101413059F42BB381E0CC
:1002380090E002C0880F991F6A95E2F7822B8BBB6A
:1002480008952BB381E090E002C0880F991F6A954A
:10025800E2F7809582238BBB0895413059F428B387
:1002680081E090E002C0880F991F6A95E2F7822B1F
:1002780088BB089528B381E090E002C0880F991FD9
:100288006A95E2F78095822388BB0895413059F436
:1002980025B381E090E002C0880F991F6A95E2F7C4
:1002A800822B85BB089525B381E090E002C0880FBA
:1002B800991F6A95E2F78095822385BB089541309E
:1002C80059F422B381E090E002C0880F991F6A9523
:1002D800E2F7822B82BB089522B381E090E002C04E
:1002E800880F991F6A95E2F78095822382BB08954B
:1002F80041E050E064E070E082E690E00E949C00FB
:1003080041E050E065E070E082E690E00E949C00E9
:1003180041E050E067E070E082E690E00E949C00D7
:100328008DB180618DB98DB181608DB98DB18068D5
:100338008DB98DB180648DB941E050E064E070E022
:0A03480082E690E00E940C01089587
:10035200CF930E947C01C0E00DC08C2F0E94C1018E
:100362002FE58AEE90E0215080409040E1F700C0F6
:100372000000CF5FCA3088F380E090E0CF9108950B
:10038200CF93C82F40E050E064E070E082E690E056
:100392000E940C01CFB9779BFECF8FB1CF91089508
:0C03A200EE0FFF1F0590F491E02D099470
:0403AE000C940000AB
:00000001FF
