:100000000C94E2000C94F2030C94F2030C94F203AF
:100010000C94F2030C94F2030C94F2030C94F2038C
:100020000C94F2030C94F2030C9468030C94F20306
:100030000C94F2030C94F2030C94F2030C94F2036C
:100040000C94F2030C94F2030C94F2030C94F2035C
:100050000C94F203180131014A0163017B017B0119
:100060007B017B017B017B017B017B017B017B01B0
:100070007B017B017B017B017B017B017B017B01A0
:100080007B017B017B017B017B017B017B017B0190
:100090007B017B01180131014A0163018801A10143
:1000A000BA01D301EB01EB01EB01EB01EB01EB0139
:1000B000EB01EB01EB01EB01EB01EB01EB01EB01E0
:1000C000EB01EB01EB01EB01EB01EB01EB01EB01D0
:1000D000EB01EB01EB01EB01EB01EB018801A1016D
:1000E000BA01D3010F031A03250330033A033A037D
:1000F0003A033A033A033A033A033A033A033A0318
:100100003A033A033A033A033A033A033A033A0307
:100110003A033A033A033A033A033A033A033A03F7
:100120003A033A030F031A0325033003FB011002BD
:1001300025023A024E024E024E024E024E024E027C
:100140004E024E024E024E024E024E024E024E022F
:100150004E024E024E024E024E024E024E024E021F
:100160004E024E024E024E024E024E02FB011002A1
:1001700025023A02C402D402E402F4020303030398
:10018000030303030303030303030303030303033F
:10019000030303030303030303030303030303032F
:1001A000030303030303030303030303030303031F
:1001B00003030303C402D402E402F40200600070EB
:1001C0000007E80011241FBECFE5D4E0DEBFCDBF9D
:1001D000ECEBF1E041E017C0B591A5913591259187
:1001E000059107FD0CC095918591EF01F92FE82F3E
:1001F00005900D92A217B307D9F7FE0104C01D9216
:10020000A217B307E1F7E33CF40731F70E94BB0301
:080210000C940A01F894FFCFE1
:1002180090E0FC01E154F109E432F10508F067C00F
:10022800E65DFF4F0C94E503413059F42AB381E0B1
:1002380090E002C0880F991F6A95E2F7822B8ABB6B
:1002480008952AB381E090E002C0880F991F6A954B
:10025800E2F7809582238ABB0895413059F427B389
:1002680081E090E002C0880F991F6A95E2F7822B1F
:1002780087BB089527B381E090E002C0880F991FDB
:100288006A95E2F78095822387BB0895413059F437
:1002980024B381E090E002C0880F991F6A95E2F7C5
:1002A800822B84BB089524B381E090E002C0880FBC
:1002B800991F6A95E2F78095822384BB089541309F
:1002C80059F421B381E090E002C0880F991F6A9524
:1002D800E2F7822B81BB089521B381E090E002C050
:1002E800880F991F6A95E2F78095822381BB08954C
:1002F80090E0FC01E154F109E432F10508F067C02F
:10030800E25BFF4F0C94E503413059F42BB381E0D5
:1003180090E002C0880F991F6A95E2F7822B8BBB89
:1003280008952BB381E090E002C0880F991F6A9569
:10033800E2F7809582238BBB0895413059F428B3A6
:1003480081E090E002C0880F991F6A95E2F7822B3E
:1003580088BB089528B381E090E002C0880F991FF8
:100368006A95E2F78095822388BB0895413059F455
:1003780025B381E090E002C0880F991F6A95E2F7E3
:10038800822B85BB089525B381E090E002C0880FD9
:10039800991F6A95E2F78095822385BB08954130BD
:1003A80059F422B381E090E002C0880F991F6A9542
:1003B800E2F7822B82BB089522B381E090E002C06D
:1003C800880F991F6A95E2F78095822382BB08956A
:1003D8000F931F93082F10E0F801E154F109E4325C
:1003E800F10508F057C0EA56FF4F0C94E50349B3EE
:1003F80081E090E09C01062E02C0220F331F0A9470
:10040800E2F7842F90E08223932302C09595879585
:100418006A95E2F7982F3EC046B381E090E09C01D0
:10042800062E02C0220F331F0A94E2F7842F90E0B1
:100438008223932302C0959587956A95E2F7982FB2
:1004480029C043B381E090E09C01062E02C0220F30
:10045800331F0A94E2F7842F90E08223932302C08B
:10046800959587956A95E2F7982F14C040B381E077
:1004780090E09C01062E02C0220F331F0A94E2F777
:10048800842F90E08223932302C0959587956A95DF
:0C049800E2F7982F892F1F910F91089513
:1004A400EF92FF920F931F93CF93DF93CDB7DEB7F5
:1004B40060970FB6F894DEBF0FBECDBF082F80E162
:1004C400E0E6F0E0DE01119601900D928A95E1F7E5
:1004D400EE24EA94F12C39C041E060E0802F0E94C0
:1004E4007C0141E061E0802F0E947C0141E062E0F8
:1004F400802F0E947C0141E063E0802F0E947C01F8
:1005040040E06F2D802F0E947C0110E018C064E051
:10051400610F802F0E94EC01811110C0EF2DF0E0DB
:10052400EE0FFF1FEE0FFF1F81E090E08C0F9D1F69
:10053400E80FF91FE10FF11DE08003C01F5F1430C5
:1005440030F39FEFE91204C0F39483E08F1520F693
:100554008E2D60960FB6F894DEBF0FBECDBFDF912F
:0C056400CF911F910F91FF90EF90089530
:1005700090E0FC01E154F109E432F10508F043C0D8
:10058000E654FF4F0C94E5032AB381E090E002C0EB
:10059000880F991F6A95E2F7982F909592239ABB3E
:1005A0009BB3892B8BBB089527B381E090E002C0F9
:1005B000880F991F6A95E2F7982F9095922397BB21
:1005C00098B3892B88BB089524B381E090E002C0E2
:1005D000880F991F6A95E2F7982F9095922394BB04
:1005E00095B3892B85BB089521B381E090E002C0CB
:1005F000880F991F6A95E2F7982F9095922391BBE7
:0806000092B3892B82BB08951F
:1006080090E0FC01E154F109E432F10578F5EE5887
:10061800FF4F0C94E5032BB381E090E002C0880FF4
:10062800991F6A95E2F782278BBB089528B381E06A
:1006380090E002C0880F991F6A95E2F7822788BB6D
:10064800089525B381E090E002C0880F991F6A954C
:10065800E2F7822785BB089522B381E090E002C0CB
:0E066800880F991F6A95E2F7822782BB0895DA
:1006760041E050E064E070E082E690E00E940C0108
:1006860041E050E065E070E082E690E00E940C01F7
:1006960041E050E067E070E082E690E00E940C01E5
:1006A6008DB180618DB98DB181608DB98DB1806854
:1006B6008DB98DB180648DB941E050E064E070E0A1
:0A06C60082E690E00E947C01089596
:1006D0001F920F920FB60F9211242F933F934F93B7
:1006E0005F936F937F938F939F93AF93BF93EF939A
:1006F000FF9387EA91E60197F1F700C0000060E000
:1007000084E60E94EF03FF91EF91BF91AF919F911B
:100710008F917F916F915F914F913F912F910F90AA
:080720000FBE0F901F90189509
:10072800CF93C82F41E060E00E940C0141E061E0F6
:100738008C2F0E940C0141E062E08C2F0E940C017A
:1007480041E063E08C2F0E940C0164E08C2F0E9432
:10075800B80265E08C2F0E94B80266E08C2F0E94D8
:0E076800B80267E08C2F0E94B802CF9108956E
:100776000E943B0381E60E94940360E084E60E94A7
:10078600EB03789481E60E9452028F3FD9F381E60B
:100796000E945202C82F81E60E9452028F3FD9F76B
:0807A6008C2F0E94D703EECF57
:1007AE00CF93C82F40E050E064E070E082E690E026
:0C07BE000E947C01CFB98FB1CF9108954B
:0C07CA00EE0FFF1F0590F491E02D099444
:0807D60041E00E940C010895AE
:0607DE000E9404030895CF
:0407E4000C94000071
:1007E8003738392B3435362D3132332A63302F3DA3
:00000001FF
