:100000000C942A000C94DF000C94DF000C94DF00A9
:100010000C94DF000C94DF000C94DF000C94DF00E4
:100020000C94DF000C94DF000C94DF000C94DF00D4
:100030000C94DF000C94DF000C94DF000C94DF00C4
:100040000C94DF000C94DF000C94DF000C94DF00B4
:100050000C94DF0011241FBECFE5D4E0DEBFCDBF7E
:10006000E4E5F0E040E017C0B591A5913591259108
:10007000059107FD0CC095918591EF01F92FE82FAF
:1000800005900D92A217B307D9F7FE0104C01D9287
:10009000A217B307E1F7E435F40731F70E94C40073
:0800A0000C945200F894FFCF0C
:0F00A8006D6F68616D65642079617373657200B7
:1000B800DC01CB01880F991FAA1FBB1F880F991F4E
:1000C800AA1FBB1F9C01AD01220F331F441F551FE0
:1000D800220F331F441F551F60E072E18AE790E04A
:1000E8000E9483002150310930BD29B98AB1886046
:0E00F8008AB98AB180618AB986E880BD089510
:10010600A1E21A2EAA1BBB1BFD010DC0AA1FBB1F15
:10011600EE1FFF1FA217B307E407F50720F0A21B87
:10012600B30BE40BF50B661F771F881F991F1A94F4
:1001360069F760957095809590959B01AC01BD011E
:04014600CF01089548
:10014A00CF92DF92EF926B01E82E0FC00E94DB0084
:10015A002FEFC21AD20AE20A8FEF90E722E081500B
:10016A0090402040E1F700C00000F6018491E7FCCE
:0E017A0080818111EBCFEF90DF90CF90089540
:1001880060E875E280E090E00E945C002FE58AEE6E
:1001980090E0215080409040E1F700C0000068EAFC
:0E01A80070E080E00E94A50080E090E00895E5
:0801B6005D9BFECF8CB908959A
:0401BE000C9400009D
:00000001FF
