:100000000C94BA000C94E6050C94E6050C94E605F5
:100010000C94E6050C94E6050C94E6050C94E605B4
:100020000C94E6050C94E6050C94E6050C94E605A4
:100030000C94E6050C94E6050C94E6050C94E60594
:100040000C94E6050C94E6050C94E6050C94E60584
:100050000C94E60571018A01A301BC01D401D4010D
:10006000D401D401D401D401D401D401D401D401E8
:10007000D401D401D401D401D401D401D401D401D8
:10008000D401D401D401D401D401D401D401D401C8
:10009000D401D40171018A01A301BC01E101FA017B
:1000A00013022C0244024402440244024402440269
:1000B0004402440244024402440244024402440210
:1000C0004402440244024402440244024402440200
:1000D000440244024402440244024402E101FA019F
:1000E00013022C027405760578057A057B057B05DD
:1000F0007B057B057B057B057B057B057B057B0500
:100100007B057B057B057B057B057B057B057B05EF
:100110007B057B057B057B057B057B057B057B05DF
:100120007B057B057405760578057A0587058905C5
:100130008B058D058E058E058E058E058E058E052B
:100140008E058E058E058E058E058E058E058E0517
:100150008E058E058E058E058E058E058E058E0507
:100160008E058E058E058E058E058E058705890503
:100170008B058D0511241FBECFE5D4E0DEBFCDBFBA
:10018000E4E7F1E041E017C0B591A59135912591E3
:10019000059107FD0CC095918591EF01F92FE82F8E
:1001A00005900D92A217B307D9F7FE0104C01D9266
:1001B000A217B307E1F7E437F40731F70E94EA002A
:0801C0000C94E200F894FFCF5B
:0B01C800616E676C65203A20002D007E
:1001D40001E022E640E062E681E60E941603CC24B8
:1001E400C3940F2EF2E6EF2EF02D00E022E641E656
:1001F40068EC71E080E00E94C40360E070E080EF8E
:1002040091E40E94A005CC24C3940F2EF2E6EF2EB5
:10021400F02D00E022E641E668E081E00E94E1047E
:1002240022E641E66EE170E080E090E00E946E0319
:100234002FE382E49FE0215080409040E1F700C02A
:10024400000060E070E080EF91EC0E94A00522E6DF
:1002540041E668E081E00E94E10422E641E661EDC6
:1002640071E080E00E94C40322E641E66EE170E0A2
:1002740080E090E00E946E032FE382E49FE021502F
:1002840080409040E1F700C0000060E070E088E446
:1002940092E40E94A00522E641E668E081E00E9423
:1002A400E10422E641E662E370E080E090E00E942F
:1002B4006E032FE382E49FE0215080409040E1F7F9
:0602C40000C000009ACF0B
:1002CA0090E0FC01E154F109E432F10508F067C05D
:1002DA00E65DFF4F0C94D905413059F42AB381E009
:1002EA0090E002C0880F991F6A95E2F7822B8ABBB9
:1002FA0008952AB381E090E002C0880F991F6A9599
:10030A00E2F7809582238ABB0895413059F427B3D6
:10031A0081E090E002C0880F991F6A95E2F7822B6C
:10032A0087BB089527B381E090E002C0880F991F28
:10033A006A95E2F78095822387BB0895413059F484
:10034A0024B381E090E002C0880F991F6A95E2F712
:10035A00822B84BB089524B381E090E002C0880F09
:10036A00991F6A95E2F78095822384BB08954130EC
:10037A0059F421B381E090E002C0880F991F6A9571
:10038A00E2F7822B81BB089521B381E090E002C09D
:10039A00880F991F6A95E2F78095822381BB089599
:1003AA0090E0FC01E154F109E432F10508F067C07C
:1003BA00E25BFF4F0C94D905413059F42BB381E02D
:1003CA0090E002C0880F991F6A95E2F7822B8BBBD7
:1003DA0008952BB381E090E002C0880F991F6A95B7
:1003EA00E2F7809582238BBB0895413059F428B3F4
:1003FA0081E090E002C0880F991F6A95E2F7822B8C
:10040A0088BB089528B381E090E002C0880F991F45
:10041A006A95E2F78095822388BB0895413059F4A2
:10042A0025B381E090E002C0880F991F6A95E2F730
:10043A00822B85BB089525B381E090E002C0880F26
:10044A00991F6A95E2F78095822385BB089541300A
:10045A0059F422B381E090E002C0880F991F6A958F
:10046A00E2F7822B82BB089522B381E090E002C0BA
:10047A00880F991F6A95E2F78095822382BB0895B7
:10048A000FC00E94BE0538F00E94C50520F09523D2
:10049A0011F00C94D3050C94E30511240C94CD05AA
:1004AA000E940E0570F3959FC1F3950F50E0551FFA
:1004BA00629FF001729FBB27F00DB11D639FAA27AF
:1004CA00F00DB11DAA1F649F6627B00DA11D661FFE
:1004DA00829F2227B00DA11D621F739FB00DA11D1F
:1004EA00621F839FA00D611D221F749F3327A00DD9
:1004FA00611D231F849F600D211D822F762F6A2F75
:10050A0011249F5750409AF0F1F088234AF0EE0FD9
:10051A00FF1FBB1F661F771F881F91505040A9F706
:10052A009E3F510580F00C94D3050C94CD055F3F96
:10053A00E4F3983ED4F3869577956795B795F79542
:10054A00E7959F5FC1F7FE2B880F911D96958795BA
:04055A0097F9089570
:10055E0011C00E94BE0538F00E94C50520F039F486
:10056E009F3F19F426F40C94E3050EF4E095E7FB97
:10057E000C94D305E92F0E940E0558F3BA176207A3
:10058E0073078407950720F079F4A6F50C94CC0533
:10059E000EF4E0950B2EBA2FA02D0B01B901900190
:1005AE000C01CA01A0011124FF27591B99F0593FD4
:1005BE0050F4503E68F11A16F040A22F232F342F1C
:1005CE004427585FF3CF469537952795A795F0406A
:1005DE005395C9F77EF41F16BA0B620B730B840B7F
:1005EE00BAF09150A1F0FF0FBB1F661F771F881F37
:1005FE00C2F70EC0BA0F621F731F841F48F487958F
:10060E0077956795B795F7959E3F08F0B0CF939580
:0E061E00880F08F09927EE0F9795879508959D
:10062C00DF92EF92FF920F931F93CF93DF93C82F1C
:10063C00D62F142FF22E6FEF0E94690541E0602F28
:10064C008F2D0E94650141E0612F8D2F0E94650165
:10065C008FE493EC0197F1F700C00000E02E0F2D12
:10066C00212F4D2F6C2F88E30E94820489EF90E09C
:10067C000197F1F700C00000212F4D2F6C2F8EE059
:10068C000E94820489EF90E00197F1F700C000000E
:10069C00212F4D2F6C2F81E00E94820483EC99E076
:1006AC000197F1F700C00000212F4D2F6C2F86E031
:1006BC000E94820489EF90E00197F1F700C00000DE
:1006CC00DF91CF911F910F91FF90EF90DF900895E4
:1006DC00AF92BF92CF92DF92EF92FF920F931F9344
:1006EC00CF93DF93CDB7DEB72F970FB6F894DEBF5D
:1006FC000FBECDBFA42EB22ED02EFE2C10E02AE0C1
:10070C0030E040E050E00E945205E1E0F0E0EC0FF8
:10071C00FD1FE10FF11D17FDFA956083622F732FFA
:10072C00842F952F6115710581059105A1F01F5F2F
:10073C00E6CFE1E0F0E0EC0FFD1FE10FF11D17FD3E
:10074C00FA958081EC2C0F2D2D2D4B2D6A2D805D73
:10075C000E9452041150112364F72F960FB6F8948F
:10076C00DEBF0FBECDBFDF91CF911F910F91FF90D8
:0C077C00EF90DF90CF90BF90AF900895F9
:100788006F927F928F92AF92BF92CF92DF92EF9249
:10079800FF920F931F93CF93DF933B01882EA42ED4
:1007A800B22ED02EFE2C1C2DC0E0D0E022C0C031CD
:1007B800D10549F4C12EEF2C0D2D2B2D4A2D61E0CA
:1007C80082E00E94E104E12E0F2D2D2D4B2D6A2D84
:1007D800F301849187FC80810E9452048FE493EC9A
:1007E8000197F1F700C000009FEF691A790A890A9A
:1007F8002196F301849187FC80818111D8CF89EFFC
:1008080090E00197F1F700C00000DF91CF911F91B0
:100818000F91FF90EF90DF90CF90BF90AF908F90A7
:060828007F906F9008951F
:10082E00CF92DF92EF92FF926B017C0141E065E087
:10083E0084E60E9465018FB58E7F8FBD8FB5826075
:10084E008FBD8EB588608EBD8EB580618EBD8FB525
:10085E008F7B8FBD8FB580688FBD20E030E04AE77B
:10086E0054E4C701B6010E94DF050E94B2047BBDAD
:10087E006ABD8FE19EE497BD86BD8EB58E7F8EBD1F
:10088E008EB582608EBD8EB58B7F8EBDFF90EF9044
:06089E00DF90CF900895E9
:1008A400EF92FF920F931F93CF93DF93F82E162F9F
:1008B400C42FD22F802F6E2D41E00E94D5016F2DC1
:1008C400812F0E947C0541E06D2F8C2F0E94D50161
:1008D40089EF90E00197F1F700C0000040E06D2F30
:1008E4008C2F0E94D50189EF90E00197F1F700C0A9
:1008F4000000DF91CF911F910F91FF90EF90089529
:10090400EF92FF920F931F93CF93DF93F82E162F3E
:10091400C42FD22F802F6E2D40E00E94D5016F2D61
:10092400812F0E947C0541E06D2F8C2F0E94D50100
:1009340089EF90E00197F1F700C0000040E06D2FCF
:100944008C2F0E94D50187EB9BE00197F1F700C043
:100954000000DF91CF911F910F91FF90EF900895C8
:100964000E94160588F09F5798F0B92F9927B75120
:10097400B0F0E1F0660F771F881F991F1AF0BA953F
:10098400C9F714C0B13091F00E94CC05B1E00895CC
:100994000C94CC05672F782F8827B85F39F0B93FBE
:1009A400CCF3869577956795B395D9F73EF49095F2
:0E09B4008095709561957F4F8F4F9F4F0895EE
:1009C200CF92EF920F93942F422F202F0E2DEC2CCB
:1009D2003FEF380F323070F4613170F4662371F0FA
:1009E200813019F45FE7560F0AC0823041F45FEBA1
:1009F200560F05C050E803C050E801C050E8692F07
:100A0200852F0E94820489EF90E00197F1F700C0E0
:0A0A120000000F91EF90CF900895BF
:100A1C0057FD9058440F551F59F05F3F71F04795A3
:100A2C00880F97FB991F61F09F3F79F08795089588
:100A3C00121613061406551FF2CF4695F1DF08C0A7
:100A4C00161617061806991FF1CF869571056105C4
:040A5C00089408955D
:100A6000A1E21A2EAA1BBB1BFD010DC0AA1FBB1FB2
:100A7000EE1FFF1FA217B307E407F50720F0A21B24
:100A8000B30BE40BF50B661F771F881F991F1A9491
:100A900069F760957095809590959B01AC01BD01BB
:040AA000CF010895E5
:100AA400052E97FB1EF400940E94AF0557FD07D056
:100AB4000E94300507FC03D04EF40C94AF0550950A
:0E0AC4004095309521953F4F4F4F5F4F08955D
:100AD20090E0FC01E154F109E432F10558F4EE58DA
:100AE200FF4F0C94D9056ABB089567BB089564BB98
:060AF200089561BB0895A8
:100AF80090E0FC01E154F109E432F10558F4EA56BA
:100B0800FF4F0C94D9056BBB089568BB089565BB6E
:060B1800089562BB089580
:100B1E00092E0394000C11F4882352F0BB0F40F4FD
:100B2E00BF2B11F460FF04C06F5F7F4F8F4F9F4F3D
:020B3E00089518
:100B400021E63BE046EB5BE30E94DF0520E030E07E
:0E0B500040EC5FE30E94B8050E941704089570
:100B5E0090958095709561957F4F8F4F9F4F08951B
:0E0B6E005058BB27AA270E94AF020C948F0597
:0E0B7C0000240A941616170618060906089596
:0E0B8A0000240A941216130614060506089598
:0E0B9800E894BB2766277727CB0197F90895CD
:0C0BA60097F99F6780E870E060E0089518
:0C0BB200EE0FFF1F0590F491E02D099458
:080BBE000E9445020C948F0512
:060BC6009FEF80EC089592
:040BCC000C94000085
:00000001FF
